{
  "_format": "hh-sol-artifact-1",
  "contractName": "Staking",
  "sourceName": "contracts/Staking.sol",
  "abi": [
    {
      "inputs": [
        {
          "internalType": "address",
          "name": "stakingToken",
          "type": "address"
        },
        {
          "internalType": "address",
          "name": "rewardToken",
          "type": "address"
        }
      ],
      "stateMutability": "nonpayable",
      "type": "constructor"
    },
    {
      "inputs": [],
      "name": "Staking__NeedsMoreThanZero",
      "type": "error"
    },
    {
      "inputs": [],
      "name": "Staking__TransferFailed",
      "type": "error"
    },
    {
      "inputs": [],
      "name": "REWARD_RATE",
      "outputs": [
        {
          "internalType": "uint256",
          "name": "",
          "type": "uint256"
        }
      ],
      "stateMutability": "view",
      "type": "function"
    },
    {
      "inputs": [],
      "name": "claimReward",
      "outputs": [],
      "stateMutability": "nonpayable",
      "type": "function"
    },
    {
      "inputs": [
        {
          "internalType": "address",
          "name": "account",
          "type": "address"
        }
      ],
      "name": "earned",
      "outputs": [
        {
          "internalType": "uint256",
          "name": "",
          "type": "uint256"
        }
      ],
      "stateMutability": "view",
      "type": "function"
    },
    {
      "inputs": [
        {
          "internalType": "address",
          "name": "account",
          "type": "address"
        }
      ],
      "name": "getStaked",
      "outputs": [
        {
          "internalType": "uint256",
          "name": "",
          "type": "uint256"
        }
      ],
      "stateMutability": "view",
      "type": "function"
    },
    {
      "inputs": [],
      "name": "rewardPerToken",
      "outputs": [
        {
          "internalType": "uint256",
          "name": "",
          "type": "uint256"
        }
      ],
      "stateMutability": "view",
      "type": "function"
    },
    {
      "inputs": [
        {
          "internalType": "address",
          "name": "",
          "type": "address"
        }
      ],
      "name": "s_balances",
      "outputs": [
        {
          "internalType": "uint256",
          "name": "",
          "type": "uint256"
        }
      ],
      "stateMutability": "view",
      "type": "function"
    },
    {
      "inputs": [],
      "name": "s_lastUpdateTime",
      "outputs": [
        {
          "internalType": "uint256",
          "name": "",
          "type": "uint256"
        }
      ],
      "stateMutability": "view",
      "type": "function"
    },
    {
      "inputs": [],
      "name": "s_rewardPerTokenStored",
      "outputs": [
        {
          "internalType": "uint256",
          "name": "",
          "type": "uint256"
        }
      ],
      "stateMutability": "view",
      "type": "function"
    },
    {
      "inputs": [],
      "name": "s_rewardToken",
      "outputs": [
        {
          "internalType": "contract IERC20",
          "name": "",
          "type": "address"
        }
      ],
      "stateMutability": "view",
      "type": "function"
    },
    {
      "inputs": [
        {
          "internalType": "address",
          "name": "",
          "type": "address"
        }
      ],
      "name": "s_rewards",
      "outputs": [
        {
          "internalType": "uint256",
          "name": "",
          "type": "uint256"
        }
      ],
      "stateMutability": "view",
      "type": "function"
    },
    {
      "inputs": [],
      "name": "s_stakingToken",
      "outputs": [
        {
          "internalType": "contract IERC20",
          "name": "",
          "type": "address"
        }
      ],
      "stateMutability": "view",
      "type": "function"
    },
    {
      "inputs": [],
      "name": "s_totalSupply",
      "outputs": [
        {
          "internalType": "uint256",
          "name": "",
          "type": "uint256"
        }
      ],
      "stateMutability": "view",
      "type": "function"
    },
    {
      "inputs": [
        {
          "internalType": "address",
          "name": "",
          "type": "address"
        }
      ],
      "name": "s_userRewardPerTokenPaid",
      "outputs": [
        {
          "internalType": "uint256",
          "name": "",
          "type": "uint256"
        }
      ],
      "stateMutability": "view",
      "type": "function"
    },
    {
      "inputs": [
        {
          "internalType": "uint256",
          "name": "amount",
          "type": "uint256"
        }
      ],
      "name": "stake",
      "outputs": [],
      "stateMutability": "nonpayable",
      "type": "function"
    },
    {
      "inputs": [
        {
          "internalType": "uint256",
          "name": "amount",
          "type": "uint256"
        }
      ],
      "name": "withdraw",
      "outputs": [],
      "stateMutability": "nonpayable",
      "type": "function"
    }
  ],
  "bytecode": "0x608060405234801561001057600080fd5b506040516108fa3803806108fa83398101604081905261002f91610081565b6001600081905580546001600160a01b039384166001600160a01b031991821617909155600280549290931691161790556100b4565b80516001600160a01b038116811461007c57600080fd5b919050565b6000806040838503121561009457600080fd5b61009d83610065565b91506100ab60208401610065565b90509250929050565b610837806100c36000396000f3fe608060405234801561001057600080fd5b50600436106100f45760003560e01c80636aa0838f11610097578063b88a802f11610066578063b88a802f146101f1578063bea08151146101f9578063cd3daf9d14610219578063f245ace41461022157600080fd5b80636aa0838f146101a2578063a694fc3a146101ab578063ab32eb69146101be578063adca9b72146101de57600080fd5b8063399080ec116100d3578063399080ec1461013d5780635997bb37146101665780636374cc001461016e5780636a74a0fc1461019957600080fd5b80628cc262146100f95780632e1a7d4d1461011f578063304ac91b14610134575b600080fd5b61010c6101073660046106d9565b610241565b6040519081526020015b60405180910390f35b61013261012d366004610709565b6102c7565b005b61010c60045481565b61010c61014b3660046106d9565b6001600160a01b031660009081526006602052604090205490565b61010c606481565b600254610181906001600160a01b031681565b6040516001600160a01b039091168152602001610116565b61010c60035481565b61010c60055481565b6101326101b9366004610709565b610447565b61010c6101cc3660046106d9565b60066020526000908152604090205481565b600154610181906001600160a01b031681565b61013261054b565b61010c6102073660046106d9565b60086020526000908152604090205481565b61010c61067a565b61010c61022f3660046106d9565b60076020526000908152604090205481565b6001600160a01b03811660009081526006602090815260408083205460079092528220548261026e61067a565b6001600160a01b03861660009081526008602052604081205491925081670de0b6b3a764000061029e8686610738565b6102a8908861074f565b6102b2919061076e565b6102bc9190610790565b979650505050505050565b336102d061067a565b600455426005556102e081610241565b6001600160a01b038216600090815260086020908152604080832093909355600454600790915291902055818061032a576040516304db3bfd60e51b815260040160405180910390fd5b600260005414156103565760405162461bcd60e51b815260040161034d906107a8565b60405180910390fd5b6002600090815533815260066020526040902054610375908490610738565b33600090815260066020526040902055600354610393908490610738565b60035560015460405163a9059cbb60e01b8152336004820152602481018590526000916001600160a01b03169063a9059cbb906044015b602060405180830381600087803b1580156103e457600080fd5b505af11580156103f8573d6000803e3d6000fd5b505050506040513d601f19601f8201168201806040525081019061041c91906107df565b90508061043c5760405163eb4c684760e01b815260040160405180910390fd5b505060016000555050565b3361045061067a565b6004554260055561046081610241565b6001600160a01b03821660009081526008602090815260408083209390935560045460079091529190205581806104aa576040516304db3bfd60e51b815260040160405180910390fd5b600260005414156104cd5760405162461bcd60e51b815260040161034d906107a8565b60026000908155338152600660205260409020546104ec908490610790565b3360009081526006602052604090205560035461050a908490610790565b6003556001546040516323b872dd60e01b8152336004820152306024820152604481018590526000916001600160a01b0316906323b872dd906064016103ca565b3361055461067a565b6004554260055561056481610241565b6001600160a01b03821660009081526008602090815260408083209390935560045460079091529181209190915554600214156105b35760405162461bcd60e51b815260040161034d906107a8565b6002600081815533808252600860205260408083208054908490559354905163a9059cbb60e01b81526004810192909252602482018490526001600160a01b03169063a9059cbb90604401602060405180830381600087803b15801561061857600080fd5b505af115801561062c573d6000803e3d6000fd5b505050506040513d601f19601f8201168201806040525081019061065091906107df565b9050806106705760405163eb4c684760e01b815260040160405180910390fd5b5050600160005550565b60006003546000141561068e575060045490565b6003546064600554426106a19190610738565b6106ab919061074f565b6106bd90670de0b6b3a764000061074f565b6106c7919061076e565b6004546106d49190610790565b905090565b6000602082840312156106eb57600080fd5b81356001600160a01b038116811461070257600080fd5b9392505050565b60006020828403121561071b57600080fd5b5035919050565b634e487b7160e01b600052601160045260246000fd5b60008282101561074a5761074a610722565b500390565b600081600019048311821515161561076957610769610722565b500290565b60008261078b57634e487b7160e01b600052601260045260246000fd5b500490565b600082198211156107a3576107a3610722565b500190565b6020808252601f908201527f5265656e7472616e637947756172643a207265656e7472616e742063616c6c00604082015260600190565b6000602082840312156107f157600080fd5b8151801515811461070257600080fdfea26469706673582212202a01eb777d1ca3945c9ae00449d3ce4e31e6e0b5da31e524f4a18f7f3885406164736f6c63430008090033",
  "linkReferences": {},
  "deployedLinkReferences": {}
}